{
  "_format": "hh-sol-artifact-1",
  "contractName": "Counter",
  "sourceName": "contracts/Counter.sol",
  "abi": [
    {
      "inputs": [],
      "name": "count",
      "outputs": [
        {
          "internalType": "uint256",
          "name": "",
          "type": "uint256"
        }
      ],
      "stateMutability": "view",
      "type": "function"
    },
    {
      "inputs": [],
      "name": "decrementCount",
      "outputs": [],
      "stateMutability": "nonpayable",
      "type": "function"
    },
    {
      "inputs": [],
      "name": "getCount",
      "outputs": [
        {
          "internalType": "uint256",
          "name": "",
          "type": "uint256"
        }
      ],
      "stateMutability": "view",
      "type": "function"
    },
    {
      "inputs": [],
      "name": "incrementCount",
      "outputs": [],
      "stateMutability": "nonpayable",
      "type": "function"
    }
  ],
  "bytecode": "0x608060405234801561001057600080fd5b50610209806100206000396000f3fe608060405234801561001057600080fd5b506004361061004c5760003560e01c806306661abd14610051578063a87d942c1461006f578063b7f90f121461008d578063e5071b8e14610097575b600080fd5b6100596100a1565b60405161006691906100f5565b60405180910390f35b6100776100a7565b60405161008491906100f5565b60405180910390f35b6100956100b0565b005b61009f6100cb565b005b60005481565b60008054905090565b60016000808282546100c29190610166565b92505081905550565b60016000808282546100dd9190610110565b92505081905550565b6100ef8161019a565b82525050565b600060208201905061010a60008301846100e6565b92915050565b600061011b8261019a565b91506101268361019a565b9250827fffffffffffffffffffffffffffffffffffffffffffffffffffffffffffffffff0382111561015b5761015a6101a4565b5b828201905092915050565b60006101718261019a565b915061017c8361019a565b92508282101561018f5761018e6101a4565b5b828203905092915050565b6000819050919050565b7f4e487b7100000000000000000000000000000000000000000000000000000000600052601160045260246000fdfea26469706673582212201120292f34c9369cf65e5cf08d966a9b07daecb5433ff477510241cddc05ce4964736f6c63430008040033",
  "linkReferences": {},
  "deployedLinkReferences": {}
}